:020000040800F2
:1000000078060020290200082D060008AF04000829
:1000100029060008D3030008790B0008000000003F
:10002000000000000000000000000000E9070008D8
:10003000D703000800000000BD0600080109000801
:10004000430200084302000843020008430200087C
:10005000430200084302000843020008430200086C
:10006000430200084302000843020008430200085C
:10007000430200084302000843020008430200084C
:10008000430200084302000843020008430200083C
:10009000430200084302000843020008430200082C
:1000A000430200084302000843020008430200081C
:1000B000430200084302000843020008430200080C
:1000C00043020008430200084302000843020008FC
:1000D00043020008A5090008430200084302000883
:1000E00043020008430200084302000843020008DC
:1000F00043020008430200084302000843020008CC
:1001000043020008430200084302000843020008BB
:1001100043020008430200084302000843020008AB
:10012000430200084302000843020008430200089B
:10013000430200084302000843020008430200088B
:10014000430200084302000843020008430200087B
:10015000430200084302000843020008430200086B
:10016000430200084302000843020008430200085B
:10017000430200084302000843020008430200084B
:10018000430200084302000800F002F800F03CF8C7
:100190000AA090E8000C82448344AAF10107DA45E2
:1001A00001D100F031F8AFF2090EBAE80F0013F0F8
:1001B000010F18BFFB1A43F001031847B40B0000EE
:1001C000D40B0000103A24BF78C878C1FAD852077F
:1001D00024BF30C830C144BF04680C6070470000C1
:1001E0000023002400250026103A28BF78C1FBD840
:1001F000520728BF30C148BF0B6070471FB500F0E1
:10020000A7FD1FBD10B510BD00F0A9F81146FFF7FE
:10021000F5FF00F013FD00F0C7F803B4FFF7F2FF9D
:1002200003BC00F0CFF800000948804709480047A8
:10023000FEE7FEE7FEE7FEE7FEE7FEE7FEE7FEE796
:10024000FEE7FEE704480549054A064B70470000F3
:1002500005090008890100087800002078060020C0
:10026000780200207802002010B5431C02E010F84C
:10027000011B71B18107FAD14FF0013202C88C1A0B
:100280008C4314EAC211F9D0C01A0A0603D0C01E6A
:1002900010BDC01A10BD0A0401D0801E10BD090295
:1002A000FCD0401E10BD10B5203AC0F00B80B1E864
:1002B0001850203AA0E81850B1E81850A0E818509B
:1002C000BFF4F5AF5FEA027C24BFB1E81850A0E8A4
:1002D000185044BF18C918C0BDE810405FEA827CBE
:1002E00024BF51F8043B40F8043B08BF7047D207D5
:1002F00028BF31F8023B48BF11F8012B28BF20F876
:10030000023B48BF00F8012B70474FF0000200B5D8
:10031000134694469646203922BFA0E80C50A0E828
:100320000C50B1F12001BFF4F7AF090728BFA0E8D6
:100330000C5048BF0CC05DF804EB890028BF40F8A2
:10034000042B08BF704748BF20F8022B11F0804FE4
:1003500018BF00F8012B704770477047704775460B
:1003600000F02CF8AE4605006946534620F0070021
:10037000854618B020B5FFF765FFBDE820404FF077
:1003800000064FF000074FF000084FF0000B21F07F
:100390000701AC46ACE8C009ACE8C009ACE8C0094C
:1003A000ACE8C0098D46704710B50446AFF3008035
:1003B0002046BDE81040FFF730BF000000487047FE
:1003C0001400002001491820ABBEFEE72600020001
:1003D000704700BFFEE77047F0B50A4600210023D2
:1003E000002400BF3DE0012505FA01F3156805EA88
:1003F00003049C4234D105684F000326BE40B54338
:10040000056015794E00B5400668354305601579DD
:10041000012D02D01579022D16D185684F000326D3
:10042000BE40B543856055794E00B540866835437A
:100430008560456801268E40B543456045689679DC
:100440008E40B6B235434560C5684F000326BE40B6
:10045000B543C560D5794E00B540C6683543C56023
:10046000491C1029BFD3F0BDF0B5002300244D076F
:10047000ED0E02FA05F3CE1000F1200555F82650D6
:100480004E07F70E0F26BE40B543CF1000F12006F1
:1004900046F82750CE1000F1200555F8265045EAC1
:1004A0000304CE1000F1200545F82640F0BD00BF42
:1004B000FEE700007CB505460C46274903C9CDE997
:1004C000000100268DF80150072D1BD0192D19D0E1
:1004D00018D0222D16D0232D14D001208DF8020023
:1004E0008DF803409DF800009DF8011008449DF828
:1004F000021008449DF803100844C0B28DF80400AF
:10050000052624E002208DF802002046E11704EBC6
:100510001161090A8DF80310E11704EB116109124A
:10052000A4EB0121C9B28DF804109DF800009DF8DC
:10053000011008449DF8021008449DF80310084477
:100540009DF804100844C0B28DF805000626314617
:10055000684600F00BFA7CBD640D00081CB5012153
:10056000084600F0ADF80120009000208DF804004E
:1005700003208DF8050002208DF807006946024827
:10058000FFF72AFF1CBD000000000240F0B58DB04F
:1005900007460D46302101A8FFF7B7FE2148006845
:1005A00000902846FFF760FE401DC0B28DF80200A3
:1005B0008DF80370042406E02A782046611CCCB232
:1005C0000DF800206D1C28780028F5D12A2220463D
:1005D000611CCCB20DF800203F222046611CCCB239
:1005E0000DF800202046611CCCB20DF800202046FA
:1005F000611CCCB20DF80020002609E01DF80400B3
:100600001DF806100844C0B20DF80400701CC6B2F4
:10061000A642F3DB601CC4B22146684600F0A6F98E
:100620000DB0F0BD6C0D000800BFFEE77047000084
:1006300070B5002100230F22C4781CB3174C246826
:1006400004F4E064C4F5E064C4F30721C1F10404D8
:10065000E3B20A4144789C40E1B2847814402143DB
:100660000C07210E0E4C05786155047804F01F0527
:100670000124AC4005786D11AD0005F1E025C5F809
:10068000004109E0047804F01F050124AC40054D49
:100690000678761145F8264070BD00000CED00E0AC
:1006A00000E400E080E100E002490143024A1160F9
:1006B000704700000000FA050CED00E070470000F4
:1006C00029B1064A12680243044B1A6004E0034A47
:1006D00012688243014B1A607047000030380240B4
:1006E00029B1064A12680243044B1A6004E0034A27
:1006F00012688243014B1A60704700004438024080
:10070000F0B5002100220024022500260223324FEA
:100710003F6807F00C0121B1042905D0082937D121
:1007200005E02E4F076036E02D4F076033E02A4F7B
:100730003F1F3F68C7F38056274F3F1F3F6807F0B2
:100740003F036EB1264FB7FBF3F7DFF88CC0ACF177
:10075000040CDCF800C0CCF3881C07FB0CF40CE0A4
:100760001E4FB7FBF3F7DFF870C0ACF1040CDCF8F8
:1007700000C0CCF3881C07FB0CF4174F3F1F3F68E9
:10078000C7F301477F1C7D00B4FBF5F7076002E06B
:10079000124F076000BF00BF0F4F3F6807F0F00126
:1007A0000909104F7A5C0768D74047600A4F3F68D5
:1007B00007F4E051890A0B4F7A5C4768D74087609D
:1007C000054F3F6807F46041490B064F7A5C476864
:1007D000D740C760F0BD0000083802400024F40094
:1007E00000127A0004000020704700000CB50020C1
:1007F000019000903448006840F48030324908602D
:1008000000BF3148006800F4003000900198401C9F
:100810000190009818B90198B0F5A04FF1D12A487D
:10082000006800F4003010B10120009001E00020C9
:1008300000900098012846D123484030006840F0DD
:1008400080502149403108602048006840F4404011
:100850001E4908601C48083000681B4908310860C0
:100860000846006840F4004008600846006840F40C
:10087000A05008601648091F0860081F006840F073
:100880008070091F086000BF0F48006800F000700A
:100890000028F9D040F205700E4908600A48083077
:1008A000006820F003000849083108600846006825
:1008B00040F00200086000BF03480830006800F004
:1008C0000C000828F8D10CBD003802400070004030
:1008D00008544007003C0240042808D14FF0E021B2
:1008E000096941F004014FF0E022116107E04FF087
:1008F000E021096921F004014FF0E0221161704705
:100900007047000010B51548006840F470001349A6
:1009100008601348006840F0010011490860002099
:100920000F49083108600E4800680E4908400C491C
:1009300008600D48091D0860081F006820F4802029
:10094000091F0860002006490C310860FFF74EFFC0
:100950004FF0006001498039086010BD88ED00E06B
:1009600000380240FFFFF6FE1030002470B5044648
:100970000D4640210A4800F01FF80BE014F8011B57
:10098000074800F0F5F800BF4021054800F029F8BD
:100990000128F9D1281EA5F10101CDB2EED170BD1B
:1009A0000010014010B540F22551024800F026F831
:1009B00010BD00000010014001F40072B2F5007F8C
:1009C00000D100BFCA430280704721B1828942F43E
:1009D0000052828104E082894DF6FF731A408281C1
:1009E000704702460020B1F5007F00D100BF138898
:1009F0000B400BB1012000E00020704770B50246AB
:100A0000002400230025002040F66A16B14200D1E0
:100A100000BFC1F3421501F01F03012606FA03F3DC
:100A2000012D02D19689334006E0022D02D1168AAB
:100A3000334001E0968A33400C12012606FA04F492
:100A40001688344013B10CB1012000E0002070BDC5
:100A5000F0B50346002400260025002040F66A1762
:100A6000B94200D100BF1846C1F3421401F01F067D
:100A7000012707FA06F5012C01D10C3004E0022C05
:100A800001D1103000E014301AB107682F4307601D
:100A900002E00768AF430760F0BD00002DE9FF47A3
:100AA00005460E460024A14600BFA046B08900B10D
:100AB00000BF2C8A24F44054F08804432C82AC8973
:100AC00041F20C608443B08831890843718908433E
:100AD0000443AC81AC8A24F44074B0890443AC82F2
:100AE0006846FFF70DFE2048854202D01F48854228
:100AF00002D1DDF80C9001E0DDF80890A88900F43F
:100B0000004040B109EBC90000EB09103168490011
:100B1000B0FBF1F707E009EBC90000EB0910316801
:100B20008900B0FBF1F76420B7FBF0F00401200965
:100B3000642101FB1078A88900F4004040B1322004
:100B400000EBC800B0FBF1F000F00700044308E040
:100B5000322000EB08106421B0FBF1F000F00F0030
:100B600004432C81BDE8FF870010014000140140C0
:100B7000C1F308028280704700BFFEE710B504464B
:100B80006FF00400FFF7A8FEE11704EB5171C1F309
:100B9000C701074A11701046007800EB4001C1EB15
:100BA000C0104FF6FF7101EAC0000249088010BD75
:100BB000000000200200002070B504464FF40770CA
:100BC00094FBF0F0C6B24FF4077094FBF0F100FB19
:100BD000114085B205E04FF4077000F009F8701E6F
:100BE000C6B2002EF7D115B1284600F001F870BD4D
:100BF0000146114A12884A434FF0E0235A6100220D
:100C00009A611A46126942F001021A6100BF4FF060
:100C1000E022106900F001021AB100F48032002ACB
:100C2000F5D04FF0E022126922F001024FF0E023EC
:100C30001A6100229A6170470200002086B01822D3
:100C400010A16846FFF72FFBA820FFF797FFFFF7DB
:100C500085FC4FF4A060FFF727FD4FF4165000F01D
:100C60001DF84FF4FA70FFF7A7FF1E211320FFF7BE
:100C700021FC0A20FFF7A0FF69460220FFF786FC4F
:100C800000BFFEE72FB2E2CAD4312A2FB2E2CAD4A3
:100C9000322A2F30303030320000000010B588B0DA
:100CA000044601210846FFF70BFD01211020FFF744
:100CB00017FD072209212448FFF7D6FB07220A2146
:100CC0002148FFF7D1FB4FF4C060069002208DF859
:100CD0001C008DF81D0000208DF81E0001208DF8ED
:100CE0001F0006A91848FFF777FB02940020ADF813
:100CF0000C00ADF80E00ADF81000ADF814000C209B
:100D0000ADF8120002A91148FFF7C8FE01210F48F3
:100D1000FFF75BFE40210D48FFF74EFE012240F237
:100D200025510A48FFF794FE25208DF80400032082
:100D30008DF805008DF8060001208DF8070001A848
:100D4000FFF776FC08B010BD000002400010014023
:100D50004FF04070E1EE100A70470000AA1B00003F
:100D6000AA000000AA00000000000000AA0800007D
:100D7000900D00080000002014000000C4010008CD
:100D8000A40D00081400002064060000E001000823
:100D9000000000000000000001020304010203043F
:040DA0000607080931
:040000050800018965
:00000001FF
