:020000040800F2
:100000007807002089010008310900087D070008F1
:100010002D090008BD02000877120008000000004A
:10002000000000000000000000000000710E000849
:100030007D05000800000000150D0008850F000870
:10004000A3010008A3010008A3010008A301000800
:10005000A3010008A3010008A3010008A3010008F0
:10006000A3010008A3010008A3010008A3010008E0
:10007000A3010008A3010008A3010008A3010008D0
:10008000A3010008A3010008A3010008A3010008C0
:10009000A3010008A3010008A3010008A3010008B0
:1000A000A3010008A3010008A3010008A3010008A0
:1000B000A3010008A3010008A3010008A301000890
:1000C000A3010008A3010008A3010008A301000880
:1000D000A301000821100008A3010008A3010008E3
:1000E000A3010008A3010008A301000800F002F822
:1000F00000F03AF80AA090E8000C82448344AAF188
:100100000107DA4501D100F02FF8AFF2090EBAE885
:100110000F0013F0010F18BFFB1A43F0010318473B
:10012000E41B0000041C0000103A24BF78C878C10A
:10013000FAD8520724BF30C830C144BF04680C60ED
:10014000704700000023002400250026103A28BF35
:1001500078C1FBD8520728BF30C148BF0B60704739
:100160001FB51FBD10B510BD00F05AF81146FFF7BE
:10017000F7FF01F04FF900F078F803B4FFF7F2FF52
:1001800003BC01F0D5F80000094880470948004742
:10019000FEE7FEE7FEE7FEE7FEE7FEE7FEE7FEE737
:1001A000FEE7FEE704480549054A064B7047000094
:1001B000890F0008ED000008780100207807002072
:1001C000780300207803002070474FF0000200B54C
:1001D000134694469646203922BFA0E80C50A0E86A
:1001E0000C50B1F12001BFF4F7AF090728BFA0E818
:1001F0000C5048BF0CC05DF804EB890028BF40F8E4
:10020000042B08BF704748BF20F8022B11F0804F25
:1002100018BF00F8012B7047704770477047704750
:10022000754600F02BF8AE4605006946534620F0AF
:100230000700854618B020B5FFF7B4FFBDE82040A1
:100240004FF000064FF000074FF000084FF0000B92
:1002500021F00701AC46ACE8C009ACE8C009ACE845
:10026000C009ACE8C0098D46704710B50446AFF32D
:1002700000802046BDE81040FFF77FBF0048704770
:100280001801002010B501F057F84FF4A06000F0FD
:1002900089FB4FF4165001F0CFF800F0F9FB00F0A5
:1002A000D8FB00F027F800F035F94FF4FA7001F0B0
:1002B00065F81E21132000F09DFA10BD00BFFEE777
:1002C00070B5054600F09CF800240DE00848005D7C
:1002D00000F00F000649095D091101EB810100EBF7
:1002E00041002855601CC4B2082CEFDB70BD000033
:1002F0001800002008B50121042000F03FFD072070
:10030000ADF8000010208DF8030003208DF80200E6
:100310006946064800F033F90421044800F0BCF9AE
:100320000321024800F0B6F908BD000000080140B2
:1003300070B5044600202F4908600A2001F044F8F7
:1003400001202D49C1F8880144F001042B480068C0
:1003500020F0F000294908600846006840F03000AD
:100360000860002619E004F0010020B101202149B5
:10037000091F086003E000201E49091F08600120D2
:100380001C49083908600A2001F01EF800201A49AB
:10039000C1F880016410701CC6B2082EE3DB174858
:1003A000006820F0F000154908600846006840F039
:1003B00080000860002616E06D100E488438006842
:1003C00010B145F0800501E005F07F0501200949E5
:1003D000083908600A2000F0F7FF00200649C1F83C
:1003E0008001701CC6B2082EE6DB002001490860BF
:1003F000284670BD880121420000214200080140CA
:1004000010B58C20FFF794FF114948708820FFF742
:100410008FFF0F4988708620FFF78AFF0C49C8704C
:100420008420FFF785FF0A4908718220FFF780FFCB
:10043000074948718020FFF77BFF00F07F000449E7
:1004400088718A20FFF774FF0149C87110BD000050
:100450001800002070B504460E4600202A490860A6
:100460000A2000F0B1FF01202849C1F8880104F0FA
:10047000FE042748006820F0F0002549086008467F
:10048000006840F030000860002519E004F0010029
:1004900020B101201C49091F086003E000201A490F
:1004A000091F086001201849083908600A2000F077
:1004B0008BFF00201549C1F880016410681CC5B28B
:1004C000082DE3DB002519E006F0010020B1012032
:1004D0000D49091F086003E000200B49091F08604F
:1004E00001200949083908600A2000F06DFF00204A
:1004F0000649C1F880017610681CC5B2082DE3DBFF
:1005000000200149086070BD88012142000021429D
:100510000008014010B500218E20FFF79BFF8021CD
:100520000846FFF797FF144841788C20FFF792FFA9
:10053000114881788820FFF78DFF0F48C178862009
:10054000FFF788FF0C4801798420FFF783FF0A48F2
:1005500041798220FFF77EFF074881798020FFF7ED
:1005600079FF0548C1798A20FFF774FF80218E202A
:10057000FFF770FF10BD00001800002070472DE944
:10058000F041024600250026002000230024002719
:1005900091F803C00CF00F0591F803C00CF0100C9B
:1005A000BCF1000F03D091F802C04CEA050591F8A8
:1005B00000C0BCF1000F31D0146800202BE04FF0D8
:1005C000010C0CFA00F3B1F800C00CEA03069E42DD
:1005D00020D183004FF00F0C0CFA03F7BC4305FA4F
:1005E00003FC4CEA040491F803C0BCF1280F06D1C7
:1005F0004FF0010C0CFA00FCC2F814C00AE091F8AC
:1006000003C0BCF1480F05D14FF0010C0CFA00FCFF
:10061000C2F810C0401C0828D1D31460B1F800C043
:10062000BCF1FF0F34DD546800202EE000F1080C0F
:100630004FF0010808FA0CF3B1F800C00CEA030609
:100640009E4221D183004FF00F0C0CFA03F7BC43FC
:1006500005FA03FC4CEA040491F803C0BCF1280F2E
:1006600005D100F1080C08FA0CF8C2F8148091F8D2
:1006700003C0BCF1480F07D100F1080C4FF001088E
:1006800008FA0CF8C2F81080401C0828CED3546039
:10069000BDE8F081416170470161704708B5344899
:1006A000FFF70EFE324880793249097888425DD0E2
:1006B0002F4880792F490870102000902C4802782C
:1006C00002230621002000F0D5FA102000902848CF
:1006D000427802230621102000F0CCFA10232F22AA
:1006E0000621202000F074FA102000902048827823
:1006F00002230621282000F0BDFA10232F22062114
:10070000382000F065FA102000901948C2780223C2
:100710000621402000F0AEFA1023202206215020AE
:1007200000F056FA102000901148027902230621A9
:10073000582000F09FFA10233A220621682000F08A
:1007400047FA102000900A484279022306217020BF
:1007500000F090FA0648407907490978884205D0A8
:10076000034840790449087000F0D6FA08BD00003B
:1007700040000020000000200100002000BFFEE734
:1007800010B54FF400710948FFF786FF4FF48071F0
:100790000648FFF781FF4FF480710448FFF77AFFA6
:1007A0004FF400710148FFF775FF10BD000C0140C8
:1007B00010B54FF400710748FFF76EFF4FF48071DA
:1007C0000448FFF767FF4FF480710248FFF764FFAA
:1007D00010BD0000000C014010B54FF4007104483A
:1007E000FFF75AFF4FF400710148FFF753FF10BDA8
:1007F000000C01407CB505460C46274903C9CDE9EC
:10080000000100268DF80150072D1BD0192D19D09D
:1008100018D0222D16D0232D14D001208DF80200DF
:100820008DF803409DF800009DF8011008449DF8E4
:10083000021008449DF803100844C0B28DF804006B
:10084000052624E002208DF802002046E11704EB83
:100850001161090A8DF80310E11704EB1161091207
:10086000A4EB0121C9B28DF804109DF800009DF899
:10087000011008449DF8021008449DF80310084434
:100880009DF804100844C0B28DF8050006263146D4
:10089000684600F0A9FB7CBDF81C0008F0B58DB0DF
:1008A00005460F46002603242E2101A8FFF78DFCE4
:1008B0001D48006800907806000E8DF802009DF833
:1008C000021006F1C5000E181DE028780A2190FBE1
:1008D000F1F03030C0B20DF804001DF804003044CF
:1008E00086B2601C84B2287890FBF1F201FB120002
:1008F0003030C0B20DF804001DF80400304486B258
:10090000601C84B26D1C381EA7F10101CFB2DCD18E
:10091000F0B20DF80400601C84B22146684600F075
:1009200063FB0DB0F0BD0000F01C000800BFFEE747
:100930007047000070B5002100230F22C47804B373
:10094000154C246804F4E064C4F5E064210AC1F1A4
:100950000403CA40447804FA03F184781440214324
:1009600009010E4C0678A155047804F01F050124F6
:10097000AC4005786D11AD0005F1E025C5F80041EA
:1009800009E0047804F01F050124AC40044D06780A
:10099000761145F8264070BD0CED00E000E400E063
:1009A00080E100E002490143024A11607047000003
:1009B0000000FA050CED00E010B50246002021B958
:1009C000632302F8013B012042E0092903DC02F81D
:1009D000011B01203CE0132919DC0A2391FBF3F4ED
:1009E00003FB141343B90A2391FBF3F302F8013B11
:1009F0000A2302F8013B08E00A2302F8013B91FBBD
:100A0000F3F403FB141302F8013B022020E06329F6
:100A10001EDC0A2391FBF3F403FB14134BB90A23E6
:100A200091FBF3F302F8013B0A2302F8013B022099
:100A30000EE00A2391FBF3F302F8013B0A2302F8CC
:100A4000013B91FBF3F403FB141302F8013B032079
:100A500010BD70B5002418E004F1B000002100F0D2
:100A60004DF90021084600F049F90021102000F05E
:100A700045F9002505E00121002000F03FF9681C40
:100A8000C5B2802DF7DB601CC4B2082CE4DB70BD5E
:100A900008B50121082000F071F94FF44070ADF85D
:100AA000000010208DF8030003208DF80200694635
:100AB0003C48FFF764FD4FF440713A48FFF7ECFD06
:100AC0004FF4487000F05AFC0021AE2000F016F9F7
:100AD0000021084600F012F90021102000F00EF964
:100AE0000021402000F00AF90021B02000F006F9B2
:100AF0000021812000F002F90021FF2000F0FEF823
:100B00000021A12000F0FAF80021A62000F0F6F85C
:100B10000021A82000F0F2F800213F2000F0EEF8BC
:100B20000021C82000F0EAF80021D32000F0E6F808
:100B30000021084600F0E2F80021D52000F0DEF8A0
:100B40000021802000F0DAF80021D82000F0D6F84B
:100B50000021052000F0D2F80021D92000F0CEF8C5
:100B60000021F12000F0CAF80021DA2000F0C6F8D8
:100B70000021122000F0C2F80021DB2000F0BEF8B6
:100B80000021302000F0BAF800218D2000F0B6F8E6
:100B90000021142000F0B2F80021AF2000F0AEF8E0
:100BA00008BD0000000C014070B504460D4605F17B
:100BB000B000002100F0A2F8102141EA1410002139
:100BC00000F09CF804F00F00002100F097F870BDD1
:100BD0002DE9F04707460E46904699460025002429
:100BE000A8F12000C5B27F2F02DD0027B01CC6B2DD
:100BF000B9F1100F24D131463846FFF7D5FF002454
:100C000008E004EB0511194A505C012100F076F868
:100C1000601CC4B2082CF4DB701CC1B23846FFF76C
:100C2000C3FF002409E004EB051108310F4A505CB2
:100C3000012100F063F8601CC4B2082CF3DB12E061
:100C400031463846FFF7B0FF00240AE005EB4501C6
:100C5000074A02EB4101085D012100F04FF8601CDA
:100C6000C4B2062CF2DBBDE8F087000000170008D4
:100C7000D81400082DE9FF5F074691461E460E9DD9
:100C80004FF0000A002435E0301B401EC1B20A209C
:100C900000F0C6FBB9FBF0F00A21B0FBF1F201FB5A
:100CA0001208BAF1000F14D1701EA04211DDB8F184
:100CB000000F0CD1AB4605EBDB71491001FB047151
:100CC000C8B22B4620220199FFF782FF10E04FF0B7
:100CD000010AAB4605EBDB71491001FB0471C8B298
:100CE00008F13001CAB22B460199FFF771FF00BF2E
:100CF000601CC4B2B442C7DBBDE8FF9F70B50446B8
:100D00000D461DB1E0B200F0FDFA02E0E0B200F0E5
:100D1000E3FA70BD7047000070B586B0142101A8D9
:100D2000FFF753FA002500260B208DF8040001255B
:100D30000DF10504104801792046FFF73DFE0646F7
:100D40003444A819C5B20C2004F8010B681CC5B2C4
:100D5000094841792046FFF72FFE06463444A8197A
:100D6000C5B20D2004F8010B681CC5B2294601A8C4
:100D7000FFF794FD06B070BD4000002029B1064A7F
:100D800092690243044B9A6104E0034A92698243E8
:100D9000014B9A61704700000010024030B50021FD
:100DA0000022002400232D4D6D6805F00C0121B1B7
:100DB000042905D0082923D105E0294D056022E04A
:100DC000274D05601FE0254D6D6805F47012234D19
:100DD0006D6805F48034022505EB92421CB9214D63
:100DE000554305600BE01D4D6D6805F400351DB1E0
:100DF0001C4D5543056002E0194D5543056002E066
:100E0000174D056000BF00BF144D6D6805F0F0017F
:100E10000909154D6B5C0568DD4045600F4D6D6837
:100E200005F4E061090A104D6B5C4568DD408560A2
:100E30000A4D6D6805F46051C90A0B4D6B5C45683D
:100E4000DD40C560054D6D6805F44041890B074DD7
:100E50006B5CC568B5FBF3F5056130BD0010024061
:100E600000127A0000093D002A0000203A0000200C
:100E7000704710B500F002F810BD00000CB500205E
:100E8000019000903348006840F480303149086098
:100E900000BF3048006800F4003000900198401C0A
:100EA0000190009818B90198B0F5A06FF1D12948C8
:100EB000006800F4003010B10120009001E0002033
:100EC00000900098012843D12348006840F01000AA
:100ED000214908600846006820F0030008600846C1
:100EE000006840F0020008601A48406819494860EC
:100EF0000846406848600846406840F480604860A2
:100F00000846406820F47C1048600846406840F479
:100F1000E81048600846006840F08070086000BF34
:100F20000C48006800F000700028F9D009484068BB
:100F300020F00300074948600846406840F002007E
:100F4000486000BF0348406800F00C000828F9D151
:100F50000CBD00000010024000200240042808D10F
:100F60004FF0E021096941F004014FF0E0221161E6
:100F700007E04FF0E021096921F004014FF0E02281
:100F8000116170477047000010B51348006840F0C9
:100F900001001149086008464068104908400E49A0
:100FA0004860084600680E4908400B49086008463A
:100FB000006820F4802008600846406820F4FE00A5
:100FC00048604FF41F008860FFF753FF4FF0006048
:100FD0000449086010BD0000001002400000FFF846
:100FE000FFFFF6FE08ED00E070B504460D46402117
:100FF0000A4800F059F80BE014F8011B074800F00C
:1010000036F900BF4021054800F063F80128F9D106
:10101000281EA5F10101CDB2EED170BD003801400E
:1010200010B540F225511D4800F060F810B31B4880
:1010300000F018F9C4B21A48008800F40040C8B99A
:101040001748008800F4804060B10A2C03D00020CB
:101050001349088020E01248008840F400401049FD
:10106000088019E00D2C06D10D48008840F480401E
:101070000B49088010E00A480088C0F30D000949B8
:101080000C5407480088401C054908800846008821
:10109000C72801DD0020088010BD00000038014095
:1010A000280000204F00002001F40072B2F5007FFC
:1010B00000D100BFCA430280704721B1828942F447
:1010C0000052828104E082894DF6FF731A408281CA
:1010D000704702460020B1F5007F00D100BF1388A1
:1010E0000B400BB1012000E00020704770B50246B4
:1010F000002400230025002040F66A16B14200D1EA
:1011000000BFC1F3421501F01F03012606FA03F3E5
:10111000012D02D19689334006E0022D02D1168AB4
:10112000334001E0968A33400C12012606FA04F49B
:101130001688344013B10CB1012000E0002070BDCE
:10114000F0B50346002400260025002040F66A176B
:10115000B94200D100BF1846C1F3421401F01F0686
:10116000012707FA06F5012C01D10C3004E0022C0E
:1011700001D1103000E014301AB107682F43076026
:1011800002E00768AF430760F0BD00002DE9F047BB
:1011900086B005460E460024A24600BFA1460027A1
:1011A000B08900B100BF2F462C8A4CF6FF70044076
:1011B000F08804432C82AC894EF6F3100440B088CA
:1011C00031890843718908430443AC81AC8A4FF6E6
:1011D000FF400440B0890443AC8201A8FFF7DEFD64
:1011E0001F48874202D1DDF810A001E0DDF80CA015
:1011F000A88900F4004040B10AEBCA0000EB0A10D5
:1012000031684900B0FBF1F807E00AEBCA0000EBD7
:101210000A1031688900B0FBF1F86420B8FBF0F0E7
:1012200004012009642101FB1089A88900F4004011
:1012300040B1322000EBC900B0FBF1F000F0070034
:10124000044308E0322000EB09106421B0FBF1F008
:1012500000F00F0004432C8106B0BDE8F0870000C9
:101260000038014001468888C0F308007047C1F388
:1012700008028280704700BFFEE700002DE9F041C0
:1012800005462C464FF400711248FFF703FA00267A
:101290001CE0274607F08007802F04D179000D4815
:1012A000FFF7FAF904E04FF480710A48FFF7F2F90A
:1012B0006006040E4FF400710648FFF7EDF94FF495
:1012C00000710448FFF7E6F9701CC6B2082EE0DB97
:1012D000BDE8F081000C014010B50446FFF750FA5C
:1012E0007820FFF7CBFFFFF777FA0020FFF7C6FF64
:1012F000FFF772FA2046FFF7C1FFFFF76DFAFFF71D
:1013000057FA10BD10B50446FFF73AFA7820FFF7F8
:10131000B5FFFFF761FA4020FFF7B0FFFFF75CFA77
:101320002046FFF7ABFFFFF757FAFFF741FA10BD72
:10133000014600BF7047000010B56FF00400FFF7D2
:101340000DFE0A4800680A49B0FBF1F0094908702F
:101350000846007800EB4001C1EBC0104FF6FF716A
:1013600001EAC0000449088010BD0000040000200C
:1013700000127A0020000020220000200146114ABD
:1013800012884A434FF0E0235A6100229A611A46BC
:10139000126942F001021A6100BF4FF0E0221069A9
:1013A00000F001021AB100F48032002AF5D04FF0AB
:1013B000E022126922F001024FF0E0231A610022BC
:1013C0009A617047220000200146114A12784A4370
:1013D0004FF0E0235A6100229A611A46126942F0E6
:1013E00001021A6100BF4FF0E022106900F0010213
:1013F0001AB100F48032002AF5D04FF0E0221269D1
:1014000022F001024FF0E0231A6100229A61704736
:1014100020000020FEF736FF01E0FFF73FF9FCE770
:1014200010B50246012000E050430B1EA1F101045B
:10143000E1B2F9D110BD000010B586B0044601211B
:1014400044F20400FFF79AFC4FF40070ADF814006A
:1014500003208DF8160018208DF8170005A91C48E8
:10146000FFF78DF84FF48060ADF8140004208DF87C
:10147000170005A91648FFF782F825208DF800000F
:1014800003208DF801008DF8020001208DF8030083
:101490006846FFF74FFA01940020ADF80800ADF858
:1014A0000A00ADF80C00ADF810000C20ADF80E00ED
:1014B00001A90848FFF76AFE012240F225510548BC
:1014C000FFF73EFE01210348FFF7F7FD06B010BD10
:1014D000000801400038014000000000000000004A
:1014E000002F000000000700070000147F147F1485
:1014F00000242A7F2A12006264081323003649550B
:10150000225000000503000000001C2241000000E2
:1015100041221C000014083E08140008083E080878
:10152000000000A0600000080808080800006060D3
:101530000000002010080402003E5149453E000012
:10154000427F4000004261514946002141454B31F4
:10155000001814127F10002745454539003C4A49C0
:101560004930000171090503003649494936000632
:101570004949291E0000363600000000563600009A
:101580000008142241000014141414140000412215
:10159000140800020151090600324959513E007CED
:1015A0001211127C007F49494936003E41414122D7
:1015B000007F4141221C007F49494941007F0909C0
:1015C0000901003E4149497A007F0808087F000070
:1015D000417F4100002040413F01007F081422412B
:1015E000007F40404040007F020C027F007F0408E3
:1015F000107F003E4141413E007F09090906003E3F
:101600004151215E007F0919294600464949493167
:101610000001017F0101003F4040403F001F20408A
:10162000201F003F4038403F006314081463000748
:101630000870080700615149454300007F4141009F
:1016400000552A552A55000041417F00000402013F
:10165000020400404040404000000102040000201D
:1016600054545478007F484444380038444444205B
:1016700000384444487F00385454541800087E0908
:1016800001020018A4A4A47C007F080404780000D0
:10169000447D4000004080847D00007F102844008D
:1016A0000000417F4000007C04180478007C08049E
:1016B000047800384444443800FC242424180018DA
:1016C000242418FC007C08040408004854545420C6
:1016D00000043F444020003C4040207C001C20404F
:1016E000201C003C4030403C004428102844001C92
:1016F000A0A0A07C004464544C441414141414148A
:1017000000000000000000000000000000000000D9
:10171000000000F80000000000000033300000006E
:1017200000100C06100C0600000000000000000075
:1017300040C07840C0784000043F04043F040400E7
:10174000007088FC08300000001820FF211E0000F7
:10175000F008F000E018000000211C031E211E000C
:1017600000F00888700000001E2123241927211092
:1017700010160E0000000000000000000000000035
:10178000000000E0180402000000000718204000DC
:1017900000020418E00000000040201807000000CC
:1017A000404080F0804040000202010F0102020030
:1017B000000000F0000000000101011F0101010014
:1017C000000000000000000080B070000000000079
:1017D0000000000000000000000101010101010102
:1017E0000000000000000000003030000000000099
:1017F000000000008060180400601806010000006E
:1018000000E010080810E000000F102020100F006A
:10181000001010F8000000000020203F20200000F1
:101820000070080808887000003028242221300049
:1018300000300888884830000018202020110E0051
:101840000000C02010F8000000070424243F2400FA
:1018500000F80888880808000019212020110E00CF
:1018600000E0108888180000000F112020110E00E1
:1018700000380808C83808000000003F00000000D9
:101880000070880808887000001C222121221C009A
:1018900000E010080810E0000000312222110F00C3
:1018A000000000C0C0000000000000303000000058
:1018B00000000080000000000000806000000000C8
:1018C00000008040201008000001020408102000E1
:1018D000404040404040400004040404040404002C
:1018E00000081020408000000020100804020100C1
:1018F000007048080808F0000000003036010000C1
:10190000C030C828E810E0000718272423140B0073
:101910000000C038E0000000203C230202273820ED
:1019200008F8888888700000203F202020110E00D1
:10193000C0300808080838000718202020100800C8
:1019400008F808080810E000203F202020100F00B1
:1019500008F88888E8081000203F2020232018007D
:1019600008F88888E8081000203F200003000000E5
:10197000C03008080838000007182020221E020086
:1019800008F808000008F808203F210101213F2045
:10199000000808F8080800000020203F2020000070
:1019A00000000808F8080800C08080807F00000060
:1019B00008F888C028180800203F20012638200099
:1019C00008F8080000000000203F20202020300000
:1019D00008F8F800F8F80800203F003F003F20001A
:1019E00008F830C00008F808203F200007183F0022
:1019F000E01008080810E0000F10202020100F0051
:101A000008F808080808F000203F21010101000043
:101A1000E01008080810E0000F18242438504F0088
:101A200008F8888888887000203F2000030C302048
:101A300000708808080838000038202121221C0086
:101A4000180808F8080818000000203F20000000CF
:101A500008F808000008F808001F202020201F00B8
:101A60000878880000C83808000007380E01000018
:101A7000F80800F80008F800033C0700073C0300E2
:101A8000081868808068180820302C03032C302048
:101A90000838C800C83808000000203F20000000B7
:101AA00010080808C838080020382621202018000F
:101AB000000000FE020202000000007F40404000E3
:101AC000000C30C000000000000000010638C0001B
:101AD00000020202FE000000004040407F000000C3
:101AE00000000402020204000000000000000000E8
:101AF00000000000000000008080808080808080E6
:101B000000020204000000000000000000000000CD
:101B100000008080808000000019242222223F20C3
:101B200008F8008080000000003F112020110E0006
:101B30000000008080800000000E11202020110095
:101B4000000000808088F800000E112020103F2047
:101B50000000808080800000001F222222221300CB
:101B6000008080F0888888180020203F2020000016
:101B70000000808080808000006B949494936000CB
:101B800008F8008080800000203F210000203F20D6
:101B900000809898000000000020203F20200000D6
:101BA000000000809898000000C08080807F0000C6
:101BB00008F8000080808000203F24022D302000A3
:101BC000000808F8000000000020203F202000004E
:101BD0008080808080808000203F20003F20003F68
:101BE0008080008080800000203F210000203F2076
:101BF0000000808080800000001F202020201F0027
:101C0000808000808000000080FFA12020110E0055
:101C10000000008080808000000E112020A0FF8046
:101C2000808080008080800020203F2120000100F3
:101C30000000808080808000003324242424190048
:101C4000008080E0808000000000001F2020000055
:101C50008080000000808000001F202020103F2096
:101C6000808080000080808000010E300806010026
:101C700080800080008080800F300C030C300F00CB
:101C800000808000808080000020312E0E312000F6
:101C9000808080000080808080818E701806010026
:101CA00000808080808080000021302C2221300044
:101CB00000000000807C020200000000003F404065
:101CC00000000000FF00000000000000FF00000016
:101CD0000002027C800000000040403F0000000045
:101CE00000060101020204040000000000000000E0
:101CF000AA1B0000AA000000AA00000000000000CB
:101D0000AA080000241D0008000000204000000078
:101D100028010008641D000840000020380700006A
:101D200044010008FFFF000000A24A040000000078
:101D3000000000000102030406070809201912161A
:101D4000212500010000000000000000000000004C
:101D5000000001020304010203040607080902044B
:041D60000608000071
:040000050800018965
:00000001FF
